:100000000C942A000C94390D0C9447000C94470072
:100010000C9447000C9447000C9447000C94470044
:100020000C9447000C9447000C9447000C94470034
:100030000C9447000C9447000C9447000C94470024
:100040000C9447000C9447000C9447000C94470014
:100050000C94470011241FBECFE5D8E0DEBFCDBF12
:1000600011E0A8E6B1E001C01D92AA36B107E1F7A0
:1000700011E0A0E6B0E0ECE2FCE102C005900D92D8
:10008000A836B107D9F70E94A50B0C94140E0C9456
:100090000000EF92FF920F931F937B018C0120E0F1
:1000A00030E040E05FE40E94F50388238CF0C80153
:1000B000B70120E030E040E05FE40E94C1010E940F
:1000C00055049B01AC01205030404040504806C0D0
:1000D000C801B7010E9455049B01AC01B901CA01D6
:1000E0001F910F91FF90EF900895A0E0B0E0EBE733
:1000F000F0E00C94DD0DDC012B01FA019C919230B3
:1001000008F439C1EB018881823008F433C194309E
:1001100069F4843009F02FC111969C91119789815F
:10012000981709F428C1A0E6B0E025C1843009F48D
:1001300021C18230A9F4923009F01DC19A01AD01AC
:1001400088E0EA010990AE01E90109929E0181501F
:10015000C1F7E201898111969C918923818308C1AD
:10016000923009F407C112962D903C901397EB0141
:100170008A819B811496AD90BD90CD90DC901797AD
:10018000EC80FD800E811F819101281B390BB90184
:1001900037FF04C066277727621B730B6032710537
:1001A0000CF061C0121613066CF537014801062EDB
:1001B00004C096948794779467940A94D2F721E0C8
:1001C00030E040E050E004C0220F331F441F551FB1
:1001D0006A95D2F721503040404050402E213F21B7
:1001E00040235123211531054105510521F021E01E
:1001F00030E040E050E079018A01E628F72808293C
:1002000019293CC0232BD1F1260E371E350146019A
:10021000062E04C096948794779467940A94D2F734
:1002200021E030E040E050E004C0220F331F441FC3
:10023000551F6A95D2F721503040404050402A2146
:100240003B214C215D21211531054105510521F04E
:1002500021E030E040E050E059016A01A628B728CB
:10026000C828D9280BC0821593052CF01C01AA249C
:10027000BB24650103C0EE24FF24870111969C91E5
:10028000D20111968C91981709F445C0992339F041
:10029000A80197012A193B094C095D0906C0A6016E
:1002A00095012E193F09400B510B57FD08C01182D3
:1002B0003382228224833583468357831DC081E0A5
:1002C00081833382228288279927DC01821B930B4A
:1002D000A40BB50B84839583A683B7830DC0220F2F
:1002E000331F441F551F24833583468357838281E0
:1002F000938101979383828324813581468157813D
:10030000DA01C9010197A109B1098F5F9F4FAF4F72
:10031000BF4328F30BC0918333822282EA0CFB1C7B
:100320000C1D1D1DE482F5820683178383E0808304
:10033000248135814681578157FF1AC0C901AA27F8
:1003400097FDA095BA2F81709070A070B0705695EF
:10035000479537952795822B932BA42BB52B848318
:100360009583A683B7838281938101969383828349
:10037000DF0101C0D201CD01CDB7DEB7E2E10C94BF
:10038000F90DA0E2B0E0E7ECF1E00C94E90D69832F
:100390007A838B839C832D833E834F835887E9E048
:1003A000EE2EF12CEC0EFD1ECE010196B7010E943F
:1003B00046068E010F5E1F4FCE010596B8010E94C2
:1003C00046068A8991E089278A8BC701B801AE0168
:1003D000475E5F4F0E9475000E947105A096E6E09F
:1003E0000C94050EA0E2B0E0E8EFF1E00C94E90D0A
:1003F00069837A838B839C832D833E834F835887C5
:10040000F9E0EF2EF12CEC0EFD1ECE010196B701A6
:100410000E9446068E010F5E1F4FCE010596B80161
:100420000E944606C701B801AE01475E5F4F0E94B9
:1004300075000E947105A096E6E00C94050EA0E2FE
:10044000B0E0E5E2F2E00C94DD0D69837A838B8302
:100450009C832D833E834F835887CE010196BE0136
:10046000675F7F4F0E944606CE010596BE016F5E14
:100470007F4F0E9446069985923088F089898230A4
:10048000C8F0943019F4823051F404C0843029F457
:10049000923081F480E690E0C6C0923049F420E0CA
:1004A0009A858A89981321E02A87CE010996BBC0D4
:1004B000823049F420E09A858A89981321E02A8BBA
:1004C000CE014196B0C02D843E844F8458886D88FB
:1004D0007E888F88988CEE24FF248701AA24BB2471
:1004E000650140E050E060E070E0E0E0F0E0C10174
:1004F00081709070892BE9F0E60CF71C081D191D1E
:100500009A01AB012A0D3B1D4C1D5D1D80E090E062
:10051000A0E0B0E0E614F7040805190520F481E036
:1005200090E0A0E0B0E0BA01A901480F591F6A1F8E
:100530007B1FAA0CBB1CCC1CDD1C97FE08C081E0F5
:1005400090E0A0E0B0E0A82AB92ACA2ADB2A3196B6
:10055000E032F10549F0660C771C881C991C569412
:10056000479437942794C3CFFA85EA892B893C892D
:100570008B859C85280F391F2E5F3F4F17C0CA01FE
:1005800081709070892B61F016950795F794E79428
:1005900080E090E0A0E0B0E8E82AF92A0A2B1B2BC3
:1005A00076956795579547952F5F3F4F77FDE7CF36
:1005B0000CC0440F551F661F771F17FD4160EE0CDE
:1005C000FF1C001F111F21503040403090E05907A0
:1005D00090E0690790E4790760F32B8F3C8FDB0193
:1005E000CA018F779070A070B07080349105A1051A
:1005F000B10561F447FD0AC0E114F10401051105DC
:1006000029F0405C5F4F6F4F7F4F40781A8EFE1786
:1006100011F081E08A8F4D8F5E8F6F8F78A383E01A
:10062000898FCE0149960E947105A096E2E10C9453
:10063000F90DA8E1B0E0EFE1F3E00C94E50D69837A
:100640007A838B839C832D833E834F835887B9E0C5
:10065000EB2EF12CEC0EFD1ECE010196B7010E948F
:1006600046068E010F5E1F4FCE010596B8010E940F
:1006700046062985223008F47EC03989323010F4CC
:10068000B8017CC08A859A8989278A87243011F02D
:10069000223031F4231709F06EC060E670E06EC0BE
:1006A000343039F41D861E861F86188A1C861B86E8
:1006B00004C0323021F484E08987B7015FC02B8504
:1006C0003C858B899C89281B390B3C872B87ED84C3
:1006D000FE840F851889AD88BE88CF88D88CEA142F
:1006E000FB040C051D0540F4EE0CFF1C001F111F40
:1006F000215030403C872B8720E030E040E050E044
:1007000080E090E0A0E0B0E460E070E0EA14FB0478
:100710000C051D0540F0282B392B4A2B5B2BEA18C2
:10072000FB080C091D09B695A79597958795EE0CC2
:10073000FF1C001F111F6F5F7F4F6F31710531F775
:10074000DA01C9018F779070A070B0708034910584
:10075000A105B10561F427FD0AC0E114F10401050A
:10076000110529F0205C3F4F4F4F5F4F20782D87B8
:100770003E874F87588BBE01675F7F4FCB010E943A
:1007800071056896EAE00C94010EA8E1B0E0EBEC8C
:10079000F3E00C94E90D69837A838B839C832D832A
:1007A0003E834F83588789E0E82EF12CEC0EFD1E26
:1007B000CE010196B7010E9446068E010F5E1F4FC3
:1007C000CE010596B8010E9446068985823040F028
:1007D0008989823028F0C701B8010E94BE0601C095
:1007E0008FEF6896E6E00C94050EA8E1B0E0EBEF21
:1007F000F3E00C94E90D69837A838B839C832D83CA
:100800003E834F83588789E0E82EF12CEC0EFD1EC5
:10081000CE010196B7010E9446068E010F5E1F4F62
:10082000CE010596B8010E9446068985823040F0C7
:100830008989823028F0C701B8010E94BE0601C034
:100840008FEF6896E6E00C94050EA8E1B0E0EBE2CD
:10085000F4E00C94E90D69837A838B839C832D8368
:100860003E834F83588789E0E82EF12CEC0EFD1E65
:10087000CE010196B7010E9446068E010F5E1F4F02
:10088000CE010596B8010E9446068985823040F067
:100890008989823028F0C701B8010E94BE0601C0D4
:1008A00081E06896E6E00C94050EACE0B0E0EBE584
:1008B000F4E00C94ED0D69837A838B839C83CE01E5
:1008C0000196BE016B5F7F4F0E9446068D8182308C
:1008D00061F1823050F1843021F48E81882351F10E
:1008E0002EC02F81388537FD20C06E812F31310514
:1008F0001CF06623F9F023C08EE190E0821B930B7D
:1009000029853A854B855C8504C056954795379572
:1009100027958A95D2F76623B1F05095409530958A
:1009200021953F4F4F4F5F4F0EC020E030E040E039
:1009300050E009C02FEF3FEF4FEF5FE704C020E02A
:1009400030E040E050E8B901CA012C96E2E00C9496
:10095000090EA8E0B0E0EFEAF4E00C94E50D7B01AD
:100960008C01611571058105910519F482E0898377
:1009700060C083E089838EE1C82ED12CDC82CB82DB
:10098000ED82FE820F831887C801B7010E942205FD
:10099000FC013197F7FF3BC0222733272E1B3F0B6B
:1009A00057016801022E04C0D694C794B794A79447
:1009B0000A94D2F740E050E060E070E081E090E01F
:1009C000A0E0B0E004C0880F991FAA1FBB1F2A95A2
:1009D000D2F70197A109B1098E219F21A023B1234C
:1009E0000097A105B10521F041E050E060E070E022
:1009F0004A295B296C297D294D835E836F83788723
:100A00008EE190E08E1B9F0B9C838B8312C03097EE
:100A100081F00E2E04C0EE0CFF1C001F111F0A9463
:100A2000D2F7ED82FE820F831887CE1ADF0ADC82AE
:100A3000CB821A82CE0101960E9471052896EAE0C7
:100A40000C94010EEF92FF920F931F937B018C0188
:100A500080E0E81680E0F80681E0080780E01807EB
:100A600088F48FEFE816F1040105110531F028F044
:100A700088E090E0A0E0B0E017C080E090E0A0E067
:100A8000B0E012C080E0E81680E0F80680E00807D9
:100A900081E0180728F088E190E0A0E0B0E004C011
:100AA00080E190E0A0E0B0E020E230E040E050E003
:100AB000281B390B4A0B5B0B04C016950795F7945E
:100AC000E7948A95D2F7F701E859FF4F8081281BF8
:100AD000310941095109C9011F910F91FF90EF9010
:100AE0000895DF92EF92FF920F931F93FC01E48031
:100AF000F58006811781D1808081823048F480E0C2
:100B000090E0A0E1B0E0E82AF92A0A2B1B2BA5C04F
:100B1000843009F49FC0823021F4EE24FF24870141
:100B200005C0E114F1040105110519F4E0E0F0E05D
:100B300096C0628173819FEF623879070CF05BC0C9
:100B400022E83FEF261B370B2A3131052CF020E03D
:100B500030E040E050E02AC0B801A701022E04C0F6
:100B600076956795579547950A94D2F781E090E07E
:100B7000A0E0B0E004C0880F991FAA1FBB1F2A95F0
:100B8000D2F70197A109B1098E219F21A023B1239A
:100B90000097A105B10521F081E090E0A0E0B0E070
:100BA0009A01AB01282B392B4A2B5B2BDA01C901A7
:100BB0008F779070A070B07080349105A105B10559
:100BC00039F427FF09C0205C3F4F4F4F5F4F04C0EF
:100BD000215C3F4F4F4F5F4FE0E0F0E02030A0E05E
:100BE0003A07A0E04A07A0E45A0710F0E1E0F0E07D
:100BF00079018A0127C06038710564F5FB01E1586D
:100C0000FF4FD801C7018F779070A070B07080340B
:100C10009105A105B10539F4E7FE0DC080E490E02F
:100C2000A0E0B0E004C08FE390E0A0E0B0E0E80E08
:100C3000F91E0A1F1B1F17FF05C016950795F7948D
:100C4000E794319687E016950795F794E7948A958F
:100C5000D1F705C0EE24FF248701EFEFF0E06E2FFF
:100C6000679566276795902F9F77D794DD24D79453
:100C70008E2F8695492F462B582F5D29B701CA0123
:100C80001F910F91FF90EF90DF900895FC01DB0121
:100C9000408151812281622F6F7770E0221F2227CD
:100CA000221F9381892F880F822B282F30E0991FD4
:100CB0009927991F11969C93119721153105A9F534
:100CC000411551056105710511F482E037C082E8D4
:100CD0009FEF13969C938E9312979A01AB0167E056
:100CE000220F331F441F551F6A95D1F783E08C9361
:100CF0000DC0220F331F441F551F12968D919C91DA
:100D00001397019713969C938E931297203080E04F
:100D1000380780E0480780E4580758F314962D936D
:100D20003D934D935C93179708952F3F310579F4C8
:100D3000411551056105710519F484E08C930895FE
:100D400064FF03C081E08C9312C01C9210C02F5727
:100D5000304013963C932E93129783E08C9387E058
:100D6000440F551F661F771F8A95D1F7706414963C
:100D70004D935D936D937C93179708951F93DC01BA
:100D8000FB019C91923008F447C08081823008F4C6
:100D900043C0943051F411961C91843099F58181AF
:100DA000682F70E0611B71093FC0843021F09230E0
:100DB00031F48230B9F18181882389F12DC01196F7
:100DC0001C9111978230F1F081811817D9F4129695
:100DD0002D913C911397828193818217930794F010
:100DE00028173907BCF014968D919D910D90BC91F8
:100DF000A02D2481358146815781281739074A075C
:100E00005B0718F4112341F00AC082179307A40767
:100E1000B50740F4112319F061E070E005C06FEFF1
:100E20007FEF02C060E070E0CB011F910895DF9377
:100E3000CF9300D000D00F92CDB7DEB789836A83FD
:100E40004B838A81883008F0D5C08981843008F0CE
:100E5000D1C08981282F30E03D832C838C819D81F6
:100E60008130910509F443C02C813D812230310548
:100E70002CF48C819D81009771F0BCC02C813D8148
:100E80002230310509F45FC08C819D81833091054A
:100E900009F485C0AFC08B818130A1F4AAE3B0E032
:100EA000EAE3F0E08081482F8A81282F30E081E05A
:100EB00090E0022E02C0880F991F0A94E2F7842B5B
:100EC0008C9398C0AAE3B0E0EAE3F0E08081482F79
:100ED0008A81282F30E081E090E0022E02C0880F46
:100EE000991F0A94E2F7809584238C9383C08B81A9
:100EF0008130A1F4A7E3B0E0E7E3F0E08081482F80
:100F00008A81282F30E081E090E0022E02C0880F15
:100F1000991F0A94E2F7842B8C936CC0A7E3B0E08E
:100F2000E7E3F0E08081482F8A81282F30E081E0DC
:100F300090E0022E02C0880F991F0A94E2F7809574
:100F400084238C9357C08B818130A1F4A4E3B0E05B
:100F5000E4E3F0E08081482F8A81282F30E081E0AF
:100F600090E0022E02C0880F991F0A94E2F7842BAA
:100F70008C9340C0A4E3B0E0E4E3F0E08081482F2C
:100F80008A81282F30E081E090E0022E02C0880F95
:100F9000991F0A94E2F7809584238C932BC08B8150
:100FA0008130A1F4A1E3B0E0E1E3F0E08081482FDB
:100FB0008A81282F30E081E090E0022E02C0880F65
:100FC000991F0A94E2F7842B8C9314C0A1E3B0E03C
:100FD000E1E3F0E08081482F8A81282F30E081E032
:100FE00090E0022E02C0880F991F0A94E2F78095C4
:100FF00084238C930F900F900F900F900F90CF91B0
:10100000DF910895DF93CF9300D000D00F92CDB73A
:10101000DEB789836A834B838A81883008F0D5C024
:101020008981843008F0D1C08981282F30E03D8348
:101030002C838C819D818130910509F443C02C81E2
:101040003D81223031052CF48C819D81009771F017
:10105000BCC02C813D812230310509F45FC08C81F8
:101060009D818330910509F485C0AFC08B818130AB
:10107000A1F4ABE3B0E0EBE3F0E08081482F8A819C
:10108000282F30E081E090E0022E02C0880F991FE7
:101090000A94E2F7842B8C9398C0ABE3B0E0EBE3C7
:1010A000F0E08081482F8A81282F30E081E090E0B5
:1010B000022E02C0880F991F0A94E2F780958423BC
:1010C0008C9383C08B818130A1F4A8E3B0E0E8E386
:1010D000F0E08081482F8A81282F30E081E090E085
:1010E000022E02C0880F991F0A94E2F7842B8C937A
:1010F0006CC0A8E3B0E0E8E3F0E08081482F8A818B
:10110000282F30E081E090E0022E02C0880F991F66
:101110000A94E2F7809584238C9357C08B818130A9
:10112000A1F4A5E3B0E0E5E3F0E08081482F8A81F7
:10113000282F30E081E090E0022E02C0880F991F36
:101140000A94E2F7842B8C9340C0A5E3B0E0E5E37A
:10115000F0E08081482F8A81282F30E081E090E004
:10116000022E02C0880F991F0A94E2F7809584230B
:101170008C932BC08B818130A1F4A2E3B0E0E2E339
:10118000F0E08081482F8A81282F30E081E090E0D4
:10119000022E02C0880F991F0A94E2F7842B8C93C9
:1011A00014C0A2E3B0E0E2E3F0E08081482F8A813E
:1011B000282F30E081E090E0022E02C0880F991FB6
:1011C0000A94E2F7809584238C930F900F900F90F0
:1011D0000F900F90CF91DF910895DF93CF9300D0C0
:1011E00000D00F92CDB7DEB78A836B8319828B81D3
:1011F000883008F084C08A81843008F080C08A81F9
:10120000282F30E03D832C834C815D814130510596
:1012100079F18C819D818230910534F42C813D815E
:101220002115310569F06BC04C815D81423051055B
:10123000B9F18C819D818330910509F449C05FC06B
:10124000E9E3F0E08081282F30E08B81882F90E067
:10125000A90102C0559547958A95E2F7CA018170A8
:101260009070882319F081E0898349C0198247C0B2
:10127000E6E3F0E08081282F30E08B81882F90E03A
:10128000A90102C0559547958A95E2F7CA01817078
:101290009070882319F081E0898331C019822FC0B2
:1012A000E3E3F0E08081282F30E08B81882F90E00D
:1012B000A90102C0559547958A95E2F7CA01817048
:1012C0009070882319F081E0898319C0198217C0B2
:1012D000E0E3F0E08081282F30E08B81882F90E0E0
:1012E000A90102C0559547958A95E2F7CA01817018
:1012F0009070882319F081E0898301C01982898167
:101300000F900F900F900F900F90CF91DF91089555
:10131000DF93CF9300D000D0CDB7DEB789836A8347
:101320008981843090F58981282F30E03C832B839C
:101330008B819C8181309105D1F02B813C812230C1
:1013400031052CF48B819C81009761F01EC02B81AC
:101350003C812230310581F08B819C818330910565
:1013600081F013C0EAE3F0E08A8180830EC0E7E3F6
:10137000F0E08A81808309C0E4E3F0E08A81808321
:1013800004C0E1E3F0E08A8180830F900F900F901A
:101390000F90CF91DF910895DF93CF9300D000D0CD
:1013A000CDB7DEB789836A838981843090F58981DE
:1013B000282F30E03C832B838B819C8181309105E9
:1013C000D1F02B813C81223031052CF48B819C8122
:1013D000009761F01EC02B813C812230310581F0E5
:1013E0008B819C818330910581F013C0EBE3F0E0A9
:1013F0008A8180830EC0E8E3F0E08A81808309C09F
:10140000E5E3F0E08A81808304C0E2E3F0E08A81D2
:1014100080830F900F900F900F90CF91DF910895E0
:10142000DF93CF9300D000D0CDB7DEB78A83198287
:101430008A81843090F58A81282F30E03C832B8389
:101440008B819C8181309105D1F02B813C812230B0
:1014500031052CF48B819C81009761F01EC02B819B
:101460003C812230310581F08B819C818330910554
:1014700081F013C0E9E3F0E0808189830EC0E6E3E8
:10148000F0E08081898309C0E3E3F0E08081898313
:1014900004C0E0E3F0E08081898389810F900F90A0
:1014A0000F900F90CF91DF910895DF93CF93CDB739
:1014B000DEB781E060E040E00E94170781E061E074
:1014C00040E00E94170781E062E040E00E941707B9
:1014D00081E065E040E00E94170781E066E040E0BF
:1014E0000E94170781E067E040E00E941707CF9154
:1014F000DF910895DF93CF930F92CDB7DEB781E0F0
:1015000060E00E94ED08882391F481E061E00E9490
:10151000ED08882361F481E062E00E94ED088823F1
:1015200031F41092680180916801898367C081E07D
:1015300060E00E94ED08813099F481E061E00E9452
:10154000ED08882369F481E062E00E94ED088823B9
:1015500039F481E0809368018091680189834EC0ED
:1015600081E060E00E94ED08882399F481E061E069
:101570000E94ED08813069F481E062E00E94ED088C
:10158000882339F482E0809368018091680189831F
:1015900035C081E060E00E94ED08813099F481E07F
:1015A00061E00E94ED08813069F481E062E00E9410
:1015B000ED08882339F483E0809368018091680105
:1015C00089831CC081E060E00E94ED08882399F4C3
:1015D00081E061E00E94ED08882369F481E062E027
:1015E0000E94ED08813039F484E080936801809195
:1015F0006801898303C080916801898389810F9084
:10160000CF91DF910895DF93CF930F92CDB7DEB7DF
:1016100081E065E00E94ED08882391F481E066E0B6
:101620000E94ED08882361F481E067E00E94ED08E4
:10163000882331F41092690180916901898380C007
:1016400081E065E00E94ED08813099F481E066E078
:101650000E94ED08882369F481E067E00E94ED08AC
:10166000882339F48AE08093690180916901898334
:1016700067C081E065E00E94ED08882399F481E06D
:1016800066E00E94ED08813069F481E067E00E9425
:10169000ED08882339F489E180936901809169011B
:1016A00089834EC081E065E00E94ED08813099F4A5
:1016B00081E066E00E94ED08813069F481E067E036
:1016C0000E94ED08882339F482E3809369018091B8
:1016D0006901898335C081E065E00E94ED088823B7
:1016E00099F481E066E00E94ED08882369F481E0C6
:1016F00067E00E94ED08813039F48BE48093690142
:101700008091690189831CC081E065E00E94ED0839
:10171000813099F481E066E00E94ED08882369F445
:1017200081E067E00E94ED08813039F484E680931F
:10173000690180916901898303C08091690189836E
:1017400089810F90CF91DF910895DF93CF93CDB72B
:10175000DEB70E942D0D0E94BB0B0E94550A0E940D
:101760007A0A0E94030B8091680190916901692FA8
:101770000E946A0CF4CFDF93CF93CDB7DEB782E03F
:1017800060E041E00E94170782E061E041E00E94D2
:10179000170782E062E041E00E94170782E063E001
:1017A00041E00E94170782E060E040E00E940208EA
:1017B00082E061E040E00E94020882E062E040E0F6
:1017C0000E94020882E063E040E00E940208CF919C
:1017D000DF910895DF93CF9300D000D000D0CDB734
:1017E000DEB789836A838A818130A9F58981282FB0
:1017F00030E03E832D838D819E8181309105A9F05B
:101800002D813E8122303105D9F08D819E81009756
:1018100009F057C082E060E040E00E94020882E0E8
:1018200061E040E00E9402084CC082E060E040E0DD
:101830000E94020882E061E041E00E94020841C08B
:1018400082E060E041E00E94020882E061E040E066
:101850000E94020836C08A81823099F58981282F3A
:1018600030E03C832B838B819C8181309105A1F0FA
:101870002B813C8122303105D1F08B819C810097F6
:1018800001F582E062E040E00E94020882E063E04D
:1018900040E00E94020815C082E062E040E00E9441
:1018A000020882E063E041E00E9402080AC082E090
:1018B00062E041E00E94020882E063E040E00E94B2
:1018C000020826960FB6F894DEBF0FBECDBFCF91AB
:1018D000DF910895DF93CF9300D000D0CDB7DEB76E
:1018E00089836A838A81882F90E0A0E0B0E0BC0100
:1018F000CD010E94A904DC01CB01BC01CD0120E097
:1019000030E048EC52E40E941903DC01CB01BC0139
:10191000CD0120E030E04FE753E40E941F02DC01DC
:10192000CB01BC01CD010E944900DC01CB010E942A
:10193000F00C8981282F30E03C832B838B819C81A4
:101940008230910561F12B813C812330310554F4C3
:101950008B819C81009789F02B813C81213031055E
:10196000A9F037C08B819C818330910509F12B81CF
:101970003C812430310529F12CC080E061E00E94D7
:10198000EA0B80E062E00E94EA0B23C081E061E0A4
:101990000E94EA0B81E062E00E94EA0B1AC082E03A
:1019A00061E00E94EA0B82E062E00E94EA0B11C053
:1019B00080E061E00E94EA0B81E062E00E94EA0BB5
:1019C00008C081E061E00E94EA0B80E062E00E94D2
:1019D000EA0B0F900F900F900F90CF91DF91089529
:1019E000DF93CF930F92CDB7DEB78983E2E5F0E0C6
:1019F0001082ECE5F0E089818083A7E3B0E0E7E3C3
:101A0000F0E0808188608C93E3E5F0E08FE68083EE
:101A10000F90CF91DF910895DF93CF93CDB7DEB7CD
:101A2000A5E5B0E0E5E5F0E0808182608C93ABE570
:101A3000B0E0EBE5F0E0808180648C9383E062E0CD
:101A400040E00E941707AFE5B0E0EFE5F0E08081ED
:101A500080688C93CF91DF910895DF93CF93CDB7BA
:101A6000DEB783E062E040E00E941707CF91DF918C
:101A700008951F920F920FB60F9211242F933F9348
:101A80004F935F936F937F938F939F93AF93BF9386
:101A9000EF93FF93DF93CF93CDB7DEB72E97DEBFE3
:101AA000CDBF80E060E00E946A0C80E090E0AAE791
:101AB000B4E48B879C87AD87BE876B857C858D85DD
:101AC0009E8520E030E04AE755E40E941F02DC01D9
:101AD000CB018F839887A987BA876F81788589859D
:101AE0009A8520E030E040E85FE30E9425048823E7
:101AF0002CF481E090E09E838D833FC06F817885D8
:101B000089859A8520E03FEF4FE757E40E94C5039F
:101B100018164CF56B857C858D859E8520E030E020
:101B200040E251E40E941F02DC01CB01BC01CD0167
:101B30000E944900DC01CB019E838D830FC080E9A8
:101B400091E09C838B838B819C810197F1F79C832F
:101B50008B838D819E8101979E838D838D819E8154
:101B6000009769F714C06F81788589859A850E94EE
:101B70004900DC01CB019E838D838D819E819A83F8
:101B8000898389819A810197F1F79A8389832E96B7
:101B9000DEBFCDBFCF91DF91FF91EF91BF91AF91AC
:101BA0009F918F917F916F915F914F913F912F9175
:101BB0000F900FBE0F901F9018952F923F924F924B
:101BC0005F926F927F928F929F92AF92BF92CF92CD
:101BD000DF92EF92FF920F931F93CF93DF93CDB7D6
:101BE000DEB7CA1BDB0B0FB6F894DEBF0FBECDBF4E
:101BF00009942A88398848885F846E847D848C841F
:101C00009B84AA84B984C884DF80EE80FD800C8127
:101C10001B81AA81B981CE0FD11D0FB6F894DEBF0A
:0C1C20000FBECDBFED010895F894FFCF7A
:101C2C000000000000000000000102020303030397
:101C3C000404040404040404050505050505050550
:101C4C000505050505050505060606060606060630
:101C5C000606060606060606060606060606060618
:101C6C000606060606060606070707070707070700
:101C7C0007070707070707070707070707070707E8
:101C8C0007070707070707070707070707070707D8
:101C9C0007070707070707070707070707070707C8
:101CAC0007070707070707070808080808080808B0
:101CBC000808080808080808080808080808080898
:101CCC000808080808080808080808080808080888
:101CDC000808080808080808080808080808080878
:101CEC000808080808080808080808080808080868
:101CFC000808080808080808080808080808080858
:101D0C000808080808080808080808080808080847
:101D1C000808080808080808080808080808080837
:081D2C0008080808080808086F
:00000001FF
